:100000000C946C030C9494030C9494030C9494033C
:100010000C9494030C9494030C9494030C94940304
:100020000C9494030C9494030C9411080C9483087E
:100030000C9494030C9494030C9494030C949403E4
:100040000C9494030C9494030C9494030C949403D4
:100050000C9494030C9494030C9494030C94FD035B
:100060000C9494030C9494030C9494030C949403B4
:100070000C9494030C9494030C9494030C949403A4
:100080000C9494030C9494030C9494030C94940394
:100090000C9494030C9494030C9494030C94940384
:1000A0000C9494030C9494030C94940300000000AB
:1000B000003E5B4F5B3E3E6B4F6B3E1C3E7C3E1CEE
:1000C000183C7E3C181C577D571C1C5E7F5E1C0034
:1000D000183C1800FFE7C3E7FF0018241800FFE7EB
:1000E000DBE7FF30483A060E2629792926407F05AE
:1000F0000507407F05253F5A3CE73C5A7F3E1C1CC4
:1001000008081C1C3E7F14227F22145F5F005F5F83
:1001100006097F017F006689956A6060606060946F
:10012000A2FFA29408047E040810207E2010080874
:100130002A1C08081C2A08081E101010100C1E0C7F
:100140001E0C30383E3830060E3E0E060000000011
:100150000000005F00000007000700147F147F14F8
:10016000242A7F2A1223130864623649562050003D
:1001700008070300001C2241000041221C002A1C29
:100180007F1C2A08083E0808008070300008080814
:100190000808000060600020100804023E51494534
:1001A0003E00427F400072494949462141494D3352
:1001B0001814127F1027454545393C4A49493141B9
:1001C000211109073649494936464949291E000087
:1001D00014000000403400000008142241141414DC
:1001E0001414004122140802015909063E415D59C8
:1001F0004E7C1211127C7F494949363E41414122D1
:100200007F4141413E7F494949417F090909013EFA
:10021000414151737F0808087F00417F4100204021
:10022000413F017F081422417F404040407F021C33
:10023000027F7F0408107F3E4141413E7F0909094A
:10024000063E4151215E7F09192946264949493216
:1002500003017F01033F4040403F1F2040201F3FDC
:100260004038403F63140814630304780403615961
:10027000494D43007F4141410204081020004141A3
:10028000417F04020102044040404040000307084F
:100290000020545478407F2844443838444444284B
:1002A000384444287F385454541800087E090218F2
:1002B000A4A49C787F0804047800447D400020407A
:1002C000403D007F1028440000417F40007C0478BE
:1002D00004787C080404783844444438FC18242406
:1002E0001818242418FC7C08040408485454542486
:1002F00004043F44243C4040207C1C2040201C3C03
:100300004030403C44281028444C9090907C4464F9
:10031000544C44000836410000007700000041368C
:10032000080002010204023C2623263C1EA1A16112
:10033000123A4040207A3854545559215555794144
:100340002154547841215554784020545579400C1B
:100350001E527212395555555939545454593955FC
:100360005454580000457C410002457D420001453F
:100370007C40F0292429F0F0282528F07C545545AC
:10038000002054547C547C0A097F4932494949323F
:100390003248484832324A4848303A4141217A3A54
:1003A00042402078009DA0A07D39444444393D401E
:1003B00040403D3C24FF2424487E4943662B2FFCCB
:1003C0002F2BFF0929F620C0887E09032054547979
:1003D000410000447D413048484A32384040227A4A
:1003E000007A0A0A727D0D19317D2629292F2826C7
:1003F0002929292630484D402038080808080808CF
:100400000808382F10C8ACBA2F102834FA00007B27
:10041000000008142A142222142A1408950022002D
:1004200095AA005500AAAA55AA55AA000000FF00E7
:10043000101010FF00141414FF001010FF00FF1024
:1004400010F010F0141414FC001414F700FF000056
:10045000FF00FF1414F404FC141417101F10101FD5
:10046000101F1414141F00101010F0000000001FC3
:10047000101010101F10101010F010000000FF10CE
:100480001010101010101010FF10000000FF1400CA
:1004900000FF00FF00001F10170000FC04F41414FC
:1004A0001710171414F404F40000FF00F7141414C8
:1004B00014141414F700F7141414171410101F1048
:1004C0001F141414F4141010F010F000001F101F6B
:1004D0000000001F14000000FC140000F010F010D9
:1004E00010FF10FF141414FF141010101F00000050
:1004F00000F010FFFFFFFFFFF0F0F0F0F0FFFFFF54
:100500000000000000FFFF0F0F0F0F0F38444438AA
:10051000447C2A2A3E147E02020606027E027E02E5
:1005200063554941633844443C04407E201E200604
:10053000027E020299A5E7A5991C2A492A1C4C7241
:1005400001724C304A4D4D303048784830BC625AC8
:10055000463D3E494949007E0101017E2A2A2A2A58
:100560002A44445F444440514A444040444A514034
:100570000000FF0103E080FF000008086B6B0836F5
:1005800012362436060F090F060000181800000066
:100590001010003040FF0101001F01011E00191D55
:1005A0001712003C3C3C3C0000000000F0F89C8E20
:1005B0008783878E9CF8F00000FEFF03030303038C
:1005C000070EFCF80000FEFF0303030303070EFC05
:1005D000F80000FFFF00000000000000FFFF000027
:1005E000FEFF8383838383C7EE7C380000F8FC0E14
:1005F00007030303070EFCF800003F7FE0C0808084
:10060000C0E07F3FFFFF01010101010101FFFF0089
:1006100000FFFF0C0C0C0C1C3E77E3C100007FFFB9
:10062000C0C0C0C0C0E0703F1F00001F3F70E0C0EE
:10063000C0C0E0703F1F00007FFFC1C1C1C1C1E366
:10064000773E1C00001F3F70E0C0C0C0E0703F1F3D
:10065000000000000001FFFF01000000D5F08D1434
:10066000A1C881CFD9F1AF2000080B00020202011E
:100670000009040000010202000005240010010529
:100680002401010104240206052406000107058156
:100690000310004009040100020A000000070502DF
:1006A0000240000007058302400000040309041211
:1006B000010002EF020140412336800001010203E4
:1006C0000141726475696E6F204C4C430041726445
:1006D00075626F7900005F0F11241FBECFEFDAE063
:1006E000DEBFCDBF11E0A0E0B1E0EAEAF1E202C076
:1006F00005900D92A634B107D9F728E0A6E4B1E041
:1007000001C01D92A832B207E1F713E0CCE6D3E0B6
:1007100004C02197FE010E94C810CB36D107C9F74B
:100720000E94C60B0C94D3100C940000CF92DF9261
:10073000EF92FF920F931F93CF93DF936C017A0197
:100740008B01C0E0D0E0CE15DF0581F0D8016D91BE
:100750008D01D601ED91FC910190F081E02DC60153
:100760000995892B11F02196EECF7E01C701DF910B
:10077000CF911F910F91FF90EF90DF90CF90089550
:100780002D9A08958FB18095807F669B88601C9B11
:10079000846008950895089580E090E008950C9491
:1007A000900FBC0180E090E00C94C10A0E94CE1032
:1007B0003FB7F89480914B0190914C01A0914D016D
:1007C000B0914E0126B5A89B05C02F3F19F00196A8
:1007D000A11DB11D3FBFBA2FA92F982F8827820FC7
:1007E000911DA11DB11DBC01CD0142E0660F771F17
:1007F000881F991F4A95D1F708951F920F920FB63F
:100800000F9211242F933F938F939F93AF93BF9396
:100810008091470190914801A0914901B0914A010E
:100820003091460123E0230F2D3720F40196A11DBE
:10083000B11D05C026E8230F0296A11DB11D20930E
:1008400046018093470190934801A0934901B093DA
:100850004A0180914B0190914C01A0914D01B091C2
:100860004E010196A11DB11D80934B0190934C0147
:10087000A0934D01B0934E01BF91AF919F918F9185
:100880003F912F910F900FBE0F901F90189590E100
:10089000282F81E061FD84E060FD880F62FD829574
:1008A000687F969FD0011124A20FAE5ABE4F9C9133
:1008B000982B40FF98279C9308952F923F924F9238
:1008C0005F926F927F928F929F92AF92BF92CF92E0
:1008D000DF92EF92FF920F931F93CF93DF93CDB7E9
:1008E000DEB727970FB6F894DEBF0FBECDBF9F834C
:1008F0008E836A30A1F4DC0155962C915597519660
:100900008D919C915297B8E02B9F800D911D1124E1
:10091000EE81FF81928B818B108A1786B5C06D3076
:1009200009F4B2C0AE81BF811F960D911C91509702
:1009300000381105BCF0EE81FF812589422F50E07F
:1009400087859089F6E02F9F800D911D1124AE813F
:10095000BF8150969C938E931F9756962C91211190
:100960007DC092C0EE81FF8181889288F0E48F166D
:1009700091040CF7AE81BF8155963C90C801B5E05B
:100980003B9E800D911D112418161906A4F6432CC8
:10099000512CC401E8E03E9E800D911D11241816D3
:1009A00019064CF6AE81BF815496BC91BC83EE8192
:1009B000FF81F389FD8325E0629FB0011124CB0103
:1009C00084559F4F3C011982F3012490F981F53041
:1009D00009F4212C540128E02B8320FE03C03D8123
:1009E0003A8302C08C818A839A81911104C0AC81C0
:1009F000BD81AB17F9F078018E2D801B8315D0F4E3
:100A000065018C2D8A19831588F4E0E8EE16F1044F
:100A100048F4F0E4CF16D10428F44A81B601C701A6
:100A20000E9447042FEFC21AD20AEBCF3FEFE31A1E
:100A3000F30AE2CF26948B8181508B83A40CB51CE2
:100A40008111CBCF99819F5F9983040D151DD3012F
:100A500011963D01963009F0B7CF6DCF6AEF640370
:100A60009001659F300D112420583F4F28173907FA
:100A70005CF4AE81BF81ED91FC9111970190F08102
:100A8000E02D6AE0CD01099581E090E027960FB650
:100A9000F894DEBF0FBECDBFDF91CF911F910F91B4
:100AA000FF90EF90DF90CF90BF90AF909F908F908E
:100AB0007F906F905F904F903F902F90089520917E
:100AC0005101211103C08FEF9FEF08955FB7F89494
:100AD00022E02093E9002091F20030E01216130684
:100AE00014F421E030E0422FFC0184E6415038F05C
:100AF000289880937F059091F1009193F7CF21156D
:100B0000310521F08091F200882319F05FBFC901FF
:100B100008958BE68093E800F9CF2FB7F89483E02F
:100B20008093E9009091E800892F807295FF04C0BE
:100B30009091F20080E4891B2FBF08958091770582
:100B400081110DC082E08093730584E08093740569
:100B5000109276051092750581E08093770583E702
:100B600095E00895CF93DF931F92CDB7DEB76983E9
:100B7000DC01ED91FC910280F381E02D41E050E039
:100B8000BE016F5F7F4F09950F90DF91CF91089560
:100B900083E08093E9008091F200882319F08AE3D2
:100BA0008093E80008950E948D0590E00895CF930A
:100BB000DF931F92CDB7DEB7FC018485958597FD45
:100BC00005C02FEF3FEF358724870BC0CE0101967C
:100BD0000E945F05019719F4898190E002C08FEFB0
:100BE0009FEF0F90DF91CF9108950F931F93CF93B5
:100BF000DF931F92CDB7DEB78C01FC01848595850C
:100C000097FF0EC0CE0101960E945F05019719F46F
:100C1000898190E002C08FEF9FEFF801958784876C
:100C2000F801848595850F90DF91CF911F910F91E9
:100C30000895FC018485958597FD0BC09FB7F894B6
:100C400082E08093E9008091F2009FBF90E00196DE
:100C500008959FB7F89482E08093E9008091F200B4
:100C60009FBF90E0089540916F05509170052091CD
:100C70006D0530916E0542175307B4F49091E8006A
:100C80009570E1F39091E80092FD19C08093F10016
:100C900080916F059091700501968F739927892B2C
:100CA00019F48EEF8093E80080916F0590917005A4
:100CB00001969093700580936F0581E0089580E020
:100CC0000895DF92EF92FF920F931F93CF93DF93DC
:100CD000D82E8A017B01E40EF51EEB01CE15DF054F
:100CE00071F0D7FE03C0FE01849101C088810E948B
:100CF000330621968111F2CF8FEF9FEF01C0C8011B
:100D0000DF91CF911F910F91FF90EF90DF900895A9
:100D10000F931F93CF93DF931F92CDB7DEB782E07F
:100D2000898342E450E069E676E080E80E9461064B
:100D30000E949E05DC0112960D911C9113970115DE
:100D4000110589F0D801ED91FC910280F381E02D2D
:100D5000BE016F5F7F4FC801099597FD04C0F80180
:100D600000851185ECCF89810F90DF91CF911F9184
:100D70000F910895615030F02091F100FC01208323
:100D80000196F8CF289884E680937F0508952F92E6
:100D90003F924F925F926F927F928F929F92AF920B
:100DA000BF92CF92DF92EF92FF920F931F93CF9358
:100DB000DF93CDB7DEB729970FB6F894DEBF0FBE2D
:100DC000CDBF4B015C0169017A01809155058823F3
:100DD000D9F120E030E040E852ECC501B4010E94B6
:100DE000C31087FD31C020E030E040E453E4C5018A
:100DF000B4010E94131087FF27C020E030E040E8D4
:100E000052ECC701B6010E94C31087FD1DC020E04F
:100E100030E040E053E4C701B6010E94131087FFA1
:100E200013C054C08181A101481B510987FD53950E
:100E30004D3E6FEF56070CF06AC02F5F35963213A8
:100E4000F1CF8D8187FF7CC07090540567E06715F6
:100E500008F4B2C0C701B6010E9418108B01C50189
:100E6000B4010E9418107B836A836B0124E1C20ED7
:100E7000D11C580144E1A40EB11C6A817B81C616C5
:100E8000D70609F499C0780117FF02C0E12CF12CB4
:100E9000C50171E4A716B10414F080E490E0E816EF
:100EA000F9066CF48A819B818038910520F4472DE6
:100EB000B7010E9447049FEFE91AF90AE9CF4A8176
:100EC0005B814F5F5F4F5B834A83D7CF509154055F
:100ED0005D83C501B4010E9418106C83C701B6017F
:100EE0000E941810698330915205E0E8F5E020E097
:100EF0006C81262E660F33088981082E000C990B11
:100F00009B838A83412C512C3201439498CF838157
:100F100090E0481759070CF090CF82814A815B819D
:100F2000481B510987FD53954D3E7FEF57070CF441
:100F300084CF848190E0481759070CF07ECF18C009
:100F400080915305883708F07FCF95E0899FF001A5
:100F50001124E058FA4F2D8120834C81418359811F
:100F6000528394E1938394838F5F809353056CCF76
:100F70004081842F90E054E0959587955A95E1F74C
:100F8000880F991FD801A80FB91F842F8F70B30144
:100F9000A20104C0440F551F661F771F8A95D2F720
:100FA0004E835F83688779878D919C911197842BFD
:100FB000952B8D939C9341CF29960FB6F894DEBF65
:100FC0000FBECDBFDF91CF911F910F91FF90EF909A
:100FD000DF90CF90BF90AF909F908F907F906F9059
:100FE0005F904F903F902F900895E2E5F1E0A0E0F0
:100FF000B8E000800EBC8111012C1197A0FDFDCF3F
:101000000192B9F70DB4089580E0E2E5F1E08111B5
:101010008FEF002481938193819381930394D1F77F
:1010200008951F920F920FB60F9211248F939F93E2
:101030008091E1009091E100937F9093E10083FF24
:101040000FC01092E90091E09093EB001092EC0039
:1010500092E39093ED001092510198E09093F0008C
:1010600082FF20C093E09093E9009091F2009923D1
:1010700019F09AE39093E80090917205992339F062
:1010800090917205915090937205992389F19091F6
:101090007F05992339F090917F05915090937F05BA
:1010A000992341F184FF10C08091E2008E7E81601F
:1010B0008093E2008091E1008F7E8093E100809137
:1010C00050018E7E806111C080FF16C08091E200C9
:1010D0008E7E80618093E2008091E1008E7E80931D
:1010E000E100809150018E7E81608093500104C0A8
:1010F0005D9ACDCF289AD6CF9F918F910F900FBE3A
:101100000F901F9018951F920F920FB60F921124F7
:10111000CF92DF92EF92FF920F931F932F933F9303
:101120004F935F936F937F938F939F93AF93BF93EF
:10113000EF93FF93CF93DF93CDB7DEB76C97DEBF0E
:10114000CDBF1092E9008091E80083FFFBC168E009
:10115000CE0145960E94BA0682EF8093E8008D8901
:1011600087FF05C09091E80090FFFCCF03C09EEF81
:101170009093E800982F907609F0C6C09E894F8919
:10118000588D2F89F88C91110CC0803829F48091EA
:101190004F018093F10002C01092F1001092F10013
:1011A00045C1913051F4811141C14130510509F0DF
:1011B0003DC180914F018D7F0BC0933061F481114F
:1011C00035C14130510509F031C180914F01826034
:1011D00080934F012BC1953049F48091E80080FF46
:1011E000FCCF822F80688093E30020C1963009F005
:1011F0005EC00B8D1C8D22E01092E90010927005EC
:1012000010926F05F21232C010926E0510926D05A9
:101210000E94880699E0BE016F5F7F4FDB01E92FD6
:101220001D92EA95E9F79983FA8291E09E8390EA0C
:1012300098879AEF998720916F0530917005275F05
:101240003F4F3C832B838D831092E90010927005F1
:1012500010926F0510936E0500936D0549E050E004
:1012600080E00E9461060E948806E0C010936E052F
:1012700000936D050E949E05DC0112960D911C9154
:1012800013970115110509F4BBC0D801ED91FC912C
:101290000480F581E02DBE016B5E7F4FC80109958A
:1012A000009709F0C7C0F80100851185EACF973093
:1012B00009F445C1983021F481E08093F100B6C073
:1012C000993009F0B3C0837009F039C1E5E1F1E06C
:1012D00081E031E096E32081211109C08EE78093FF
:1012E000EA001092EA008F89809351019FC0809399
:1012F000E9003093EB0021912093EC009093ED00F6
:101300008F5F873041F7EACF8B8D9C8D1092E9007B
:101310001092700510926F0590936E0580936D0585
:10132000898D811153C08E899D89913A49F481320A
:1013300009F005C147E050E06CE071E080E0BBC01F
:10134000913209F0FCC0833269F48F89988DA0E056
:10135000B0E08093080190930901A0930A01B09333
:101360000B0164C0803269F48091E80082FFFCCFF9
:1013700067E08CE091E00E94BA068BEF8093E80072
:1013800055C0823209F052C08F8980931301EEEF6D
:10139000FFE7859194918B3F9C4D19F0E0E0F8E0D8
:1013A00002C0EEEFFAE080910C0190910D01A09146
:1013B0000E01B0910F01803B9440A105B10509F0E9
:1013C0009EC08091130180FF79C099C00E949E0544
:1013D000FC01028113810115110509F4B0C0D80187
:1013E000ED91FC910190F081E02DBE016B5E7F4F8D
:1013F000C801099581111AC0F80100851185EBCF4C
:10140000F1E0FF1609F44EC0F3E0FF1298C08F8997
:10141000882309F44AC0823089F440E867E08DEC03
:1014200096E00E942A0F882309F489C08EEF8093EA
:10143000E80088C018161906CCF381C0813029F461
:1014400040E86BE081EC96E0ECCF833009F077C0A8
:101450000E949E05DC011296ED90FC9013978E0180
:101460000F5F1F4F6801E114F10479F0D701ED918E
:10147000FC910680F781E02DB801C7010995080F9E
:10148000111DF701E084F184EECFD8011C92F60122
:1014900001900020E9F73197BF016C197D0940E008
:1014A000C601BFCF6FEA76E002C06BEA76E0FB01CF
:1014B000449150E080E80E946106B8CFEE3F2AE0F8
:1014C000F20751F0808191818737A7E79A0721F0D1
:1014D0009093FF0A8093FE0A87E797E791838083C2
:1014E00080916000809371059BE088E10FB6F894CD
:1014F000A895809360000FBE9093600097CF808185
:1015000091818737974709F091CFA8958091600026
:101510008861809360008091710580936000EE3F48
:10152000BAE0FB0739F08091FE0A9091FF0A91839F
:1015300080837CCF1092FF0A1092FE0A77CF81E25F
:101540008093EB006C960FB6F894DEBF0FBECDBF54
:10155000DF91CF91FF91EF91BF91AF919F918F91CB
:101560007F916F915F914F913F912F911F910F91BB
:10157000FF90EF90DF90CF900F900FBE0F901F90D5
:1015800018958F929F92AF92BF92CF92DF92EF9277
:10159000FF926B017C010E94D8034B015C01C114D6
:1015A000D104E104F104F1F00E94D803DC01CB0185
:1015B00088199909AA09BB09883E9340A105B1057C
:1015C00070F321E0C21AD108E108F10888EE880E14
:1015D00083E0981EA11CB11CC114D104E104F104E4
:1015E00019F7DDCFFF90EF90DF90CF90BF90AF90D5
:1015F0009F908F9008958F929F92AF92BF92CF92BB
:10160000DF92EF92FF920F931F93CF93DF936C01C2
:101610007B018A0180911301882309F45CC08091C9
:101620005101882309F457C08091500180FF05C003
:101630008091E00082608093E000E801B12C8AEFA5
:10164000A82E93E0892E2AE3922E209711F4BB2036
:10165000D9F10E948D0581110AC0AA94AA20D9F15E
:1016600061E070E080E090E00E94C10AEECF282F98
:1016700030E0C217D3070CF48C2F9FB7F8948092F8
:10168000E9002091E80025FF1DC0282F30E0C21B93
:10169000D30BF701815020F041914093F100FACF34
:1016A000E20EF31EBB2019F09092E8000AC0809170
:1016B000E80085FD07C09092E800BB24B394209712
:1016C00009F0B12C9FBFC1CF5D9884E6809372056D
:1016D0001016110644F081E090E0F60193838283B6
:1016E00080E090E001C0C801DF91CF911F910F9180
:1016F000FF90EF90DF90CF90BF90AF909F908F9032
:1017000008950F931F93CF93DF938C0181E090E0B6
:101710000E94CF0380FF32C08AE090E00E94CF0396
:101720009FEF980F9E3F50F522E330E0D80150968E
:101730003C932E931F9728E330E052963C932E93D0
:101740005197CBE0D0E0D801ED91FC910190F08170
:10175000E02D682FC8010995CE010E94CF03219684
:10176000C131D10581F780E00E94F50788EE93E052
:10177000DF91CF911F910F910C94D103DF91CF9105
:101780001F910F91089504970C94810BCF93DF93D1
:10179000CDB7DEB760970FB6F894DEBF0FBECDBFF2
:1017A000789484B5826084BD84B5816084BD85B53C
:1017B000826085BD85B5816085BD80916E00816048
:1017C00080936E00109281008091810082608093EE
:1017D00081008091810081608093810080918000F0
:1017E000816080938000809191008260809391005D
:1017F0008091910081608093910080919000816040
:10180000809390008091C10084608093C10080919A
:10181000C10082608093C1008091C100816080938B
:10182000C1008091C30081608093C3008091C0009B
:1018300082608093C0008091C20081608093C2006A
:1018400080917A00846080937A0080917A0082602F
:1018500080937A0080917A00816080937A008091F1
:101860007A00806880937A001092510110924F01A3
:10187000109250018091D70081608093D70080EA58
:101880008093D80089B5806189BD89B5826089BDA2
:1018900009B400FEFDCF61E070E080E090E00E94BE
:1018A000C10A8091D8008F7C80618093D80080919C
:1018B000E000807F8093E0008091E1008E7E809345
:1018C000E1008DE08093E200559A209A81EC8093AC
:1018D0007C0085B1806F85B984B1877E84B984B17D
:1018E000876E84B95E9A5F988AB1806D8AB9769A5C
:1018F0006E9881B3806F81BB899880B38D7080BBF7
:1019000080E58CBD81E08DBD85E090E00E94D10333
:101910005F9A85E090E00E94D1035E985C98ECE5C8
:10192000F6E089E696E024912EBD00000DB407FE96
:10193000FDCF31968E179F07B1F75C9A81E88093AF
:1019400064008091650081608093650080E00E9462
:10195000F5070E94C20387FF24C05C9885EA8EBD0C
:1019600000000DB407FEFDCF5C9A2E982F982D989D
:101970008091640080628093640081E083BF8895D9
:1019800013BEFCCF2D980E94C2038478843871F076
:101990000E94C2038471843131F188EC90E00E948E
:1019A000D1030E94C20382FDEDCF3AC00E94C00362
:1019B00088EC90E00E94D1032F9882E090E00E9492
:1019C000900F8F3F29F06FEF82E090E00E94980F18
:1019D00084EF91E00E94D1032F9A0E94C203847881
:1019E0008438D9F3D5CF0E94C00388EC90E00E94E0
:1019F000D1032E9882E090E00E94900F882329F076
:101A000060E082E090E00E94980F84EF91E00E94F5
:101A1000D1032E9A0E94C20384718431D9F3BDCFC1
:101A20000E94C00382E090E00E94CF03882319F057
:101A30003E9A3F9A02C03E983F9881E090E00E9413
:101A4000CF03482F4470942E81FF85C041112E98FA
:101A500000EF1FEFE8E0EE2EF12C0E94C20386FF9C
:101A600005C02E9A2F9A0E94C00375C0992029F0B4
:101A70000430110511F42E9A2F9881E00E94F50789
:101A8000980117FF04C022273327201B310B277032
:101A90003327C80117FD079673E0959587957A95CA
:101AA000E1F717FF05C00197F701E21BF30B9F0158
:101AB000AC015695542F4427579547954E5A5E4F83
:101AC000A0E0B0E03701621A730A8F3FFFEF9F0773
:101AD0004CF40196A85ABF4F40585F4FA03BB10548
:101AE000A1F71EC06A0164E9C60ED11C5A0160E06C
:101AF00070E08F3FEFEF9E0709F48AC1FB01EA0F08
:101B0000FB1FE455FA4FE491F0E02F01022E01C0D3
:101B1000440C0A94EAF7F50184884828448A78C17D
:101B200080E00E94F5078FE090E00E94D1030F5FF4
:101B30001F4F0931110509F090CF992011F02F9A0C
:101B40002D9880E991E00E94D1030E94C00386E5B0
:101B500095E00E94810B82E390E00E94D1030E94F5
:101B6000C2038111F8CF80E1809361050E940408CF
:101B7000109268051092670510926605109265052F
:101B80001092520581E08093550583E080935405BF
:101B900080E00E94F5073324339480E1D82EAE0113
:101BA0004F5F5F4F7A01CC24C39493E0292E412CE0
:101BB000512C20E7622E22E4722E812C912C30EFE2
:101BC000A32E31E4B32E8FB7F89440914701509182
:101BD00048016091490170914A018FBF809162056F
:101BE000942F981B892F90916305992329F0809356
:101BF00064051092630505C190916105891740F451
:101C00008F5F891708F0FDC033BE889513BEF9C0F9
:101C1000C09263054093620580915D0590915E05D9
:101C2000019690935E0580935D050E9404081092D2
:101C3000680510926705109266051092650510926E
:101C4000520520E030E046EC52EC609104017091C6
:101C5000050180910601909107010E9413108111E6
:101C600022C020E030E046EC52EC6091000170911F
:101C7000010180910201909103010E9413108111D2
:101C800012C04092040150920501609206017092C8
:101C900007018092000190920101A0920201B0928E
:101CA0000301C09255050E94C20385FF16C020E0C3
:101CB00030E040E85FE3609104017091050180919C
:101CC0000601909107010E94A60F60930401709392
:101CD000050180930601909307010E94C20386FFCD
:101CE00016C020E030E040E85FE3609104017091AD
:101CF000050180910601909107010E94A70F609352
:101D000004017093050180930601909307010E94DE
:101D1000C20387FF16C020E030E040E85FE3609137
:101D200000017091010180910201909103010E94D4
:101D3000A60F6093000170930101809302019093BC
:101D400003010E94C20384FF16C020E030E040E897
:101D50005FE3609100017091010180910201909117
:101D600003010E94A70F609300017093010180930B
:101D700002019093030120925405F7014D2D119219
:101D80004A95E9F78091520580935305870120E039
:101D900030E040E251E460E070E080E292E40E94D2
:101DA000C706809153058093520520910001309120
:101DB0000101409102015091030160910401709171
:101DC00005018091060190910701F701AD2D119257
:101DD000AA95E9F70E94C7068091530580935205A2
:101DE000898141E050E083FF03C061E471E002C0FB
:101DF00063E471E086E595E00E94960380E00E942E
:101E0000F507E0E0F0E0309709F4DDCE0995DBCE90
:101E10002115310591F0FB01EA0FFB1FE455FA4F44
:101E2000E491F0E02F01062C02C0559447940A94E7
:101E3000E2F7F6018080482840826F5F7F4FFFEF16
:101E4000CF1ADF0AEFEFAE1ABE0A6835710509F046
:101E500050CE3FCEDF92EF92FF920F931F93CF931E
:101E6000DF93D82EF92EE42E062F10E0C80101963C
:101E7000880F0E94330683E00E943306CD2DDF2DAC
:101E80000C0F1D1FC017D10789F0E7FE03C0FE012C
:101E9000849101C088810E943306F82E80E00E9460
:101EA00033068F2121968111EDCF01C081E0DF91B2
:101EB000CF911F910F91FF90EF90DF900895E8ED83
:101EC000F7E01382128288EE93E0A0E0B0E0848312
:101ED0009583A683B7838FE191E0918380838FEF11
:101EE0009FEF95878487E6E5F5E0138212821186DD
:101EF000128680E1838710861782158681E391E040
:101F0000918380838FE391E095838483108A178681
:101F1000128A118A81E0838B148A858B168A089530
:101F2000F999FECF92BD81BDF89A992780B50895A1
:101F3000262FF999FECF1FBA92BD81BD20BD0FB6E5
:101F4000F894FA9AF99A0FBE019608955058BB2753
:101F5000AA270E94BE0F0C9489100E947B1038F0B3
:101F60000E94821020F039F49F3F19F426F40C945B
:101F700078100EF4E095E7FB0C947210E92F0E94A4
:101F80009A1058F3BA17620773078407950720F071
:101F900079F4A6F50C94BC100EF4E0950B2EBA2F34
:101FA000A02D0B01B90190010C01CA01A00111245F
:101FB000FF27591B99F0593F50F4503E68F11A160B
:101FC000F040A22F232F342F4427585FF3CF46959C
:101FD00037952795A795F0405395C9F77EF41F16BE
:101FE000BA0B620B730B840BBAF09150A1F0FF0F88
:101FF000BB1F661F771F881FC2F70EC0BA0F621F74
:10200000731F841F48F4879577956795B795F79563
:102010009E3F08F0B0CF9395880F08F09927EE0FF8
:102020009795879508950E944E1008F481E00895D1
:102030000E941F106894B1110C94BD1008950E9465
:10204000A21088F09F5798F0B92F9927B751B0F098
:10205000E1F0660F771F881F991F1AF0BA95C9F72C
:1020600014C0B13091F00E94BC10B1E008950C94FE
:10207000BC10672F782F8827B85F39F0B93FCCF3B1
:10208000869577956795B395D9F73EF490958095A9
:10209000709561957F4F8F4F9F4F0895990F00085E
:1020A000550FAA0BE0E8FEEF16161706E807F9072A
:1020B000C0F012161306E407F50798F0621B730BC5
:1020C000840B950B39F40A2661F0232B242B252B46
:1020D00021F408950A2609F4A140A6958FEF811DE9
:1020E000811D089597F99F6780E870E060E008958A
:1020F0009FEF80EC089500240A9416161706180620
:102100000906089500240A941216130614060506FB
:102110000895092E0394000C11F4882352F0BB0F8C
:1021200040F4BF2B11F460FF04C06F5F7F4F8F4FEF
:102130009F4F089557FD9058440F551F59F05F3F2A
:1021400071F04795880F97FB991F61F09F3F79F0D9
:1021500087950895121613061406551FF2CF46955B
:10216000F1DF08C0161617061806991FF1CF8695DD
:102170007105610508940895E894BB2766277727C1
:10218000CB0197F908950E944E1008F48FEF08953F
:10219000EE0FFF1F0590F491E02D099481E090E08F
:0A21A000F8940C94D310F894FFCFCC
:1021AA000000C6C20000C6C2FFFFFFFF00E1000038
:1021BA000000000000C1808100000000000000B2A1
:1021CA0005FB0AD305C8051906D705F50500000061
:1021DA00005D049603CC03CB03810BFCFF0000C314
:0621EA000B59004E00003D
:00000001FF
