:100000000C947F030C94A7030C94A7030C94A703F0
:100010000C94A7030C94A7030C94A7030C94A703B8
:100020000C94A7030C94A7030C943F060C94B10600
:100030000C94A7030C94A7030C94A7030C94A70398
:100040000C94A7030C94A7030C94A7030C94A70388
:100050000C94A7030C94A7030C94A7030C94FE0420
:100060000C94A7030C94A7030C94A7030C94A70368
:100070000C94A7030C94A7030C94A7030C94A70358
:100080000C94A7030C94A7030C94A7030C94A70348
:100090000C94A7030C94A7030C94A7030C94A70338
:1000A0000C94A7030C94A7030C94A70305A84CCDAC
:1000B000B2D44EB93836A9020C50B9918688083CA2
:1000C000A6AAAA2ABE000000803F00000000003E51
:1000D0005B4F5B3E3E6B4F6B3E1C3E7C3E1C183CB8
:1000E0007E3C181C577D571C1C5E7F5E1C00183C14
:1000F0001800FFE7C3E7FF0018241800FFE7DBE75D
:10010000FF30483A060E2629792926407F05050743
:10011000407F05253F5A3CE73C5A7F3E1C1C08089F
:100120001C1C3E7F14227F22145F5F005F5F060964
:100130007F017F006689956A606060606094A2FFBD
:10014000A29408047E040810207E201008082A1CAF
:1001500008081C2A08081E101010100C1E0C1E0C7B
:1001600030383E3830060E3E0E060000000000001B
:10017000005F00000007000700147F147F14242A8A
:100180007F2A12231308646236495620500008075C
:100190000300001C2241000041221C002A1C7F1C7D
:1001A0002A08083E0808008070300008080808087F
:1001B000000060600020100804023E5149453E00E6
:1001C000427F400072494949462141494D33181444
:1001D000127F1027454545393C4A49493141211193
:1001E00009073649494936464949291E0000140085
:1001F00000004034000000081422411414141414A8
:10020000004122140802015909063E415D594E7C05
:100210001211127C7F494949363E414141227F41BA
:1002200041413E7F494949417F090909013E414118
:1002300051737F0808087F00417F41002040413F03
:10024000017F081422417F404040407F021C027F12
:100250007F0408107F3E4141413E7F090909063E67
:100260004151215E7F091929462649494932030136
:100270007F01033F4040403F1F2040201F3F403848
:10028000403F631408146303047804036159494D23
:1002900043007F4141410204081020004141417F59
:1002A00004020102044040404040000307080020CF
:1002B000545478407F2844443838444444283844CF
:1002C00044287F385454541800087E090218A4A406
:1002D0009C787F0804047800447D40002040403D25
:1002E000007F1028440000417F40007C047804789F
:1002F0007C080404783844444438FC182424181832
:10030000242418FC7C08040408485454542404048D
:100310003F44243C4040207C1C2040201C3C40307A
:10032000403C44281028444C9090907C4464544CA9
:100330004400083641000000770000004136080004
:1003400002010204023C2623263C1EA1A161123AAE
:100350004040207A385454555921555579412154FB
:10036000547841215554784020545579400C1E5200
:1003700072123955555559395454545939555454A4
:10038000580000457C410002457D420001457C400B
:10039000F0292429F0F0282528F07C545545002028
:1003A00054547C547C0A097F4932494949323248C5
:1003B000484832324A4848303A4141217A3A42402C
:1003C0002078009DA0A07D39444444393D40404000
:1003D0003D3C24FF2424487E4943662B2FFC2F2BD1
:1003E000FF0929F620C0887E090320545479410072
:1003F00000447D413048484A32384040227A007AF1
:100400000A0A727D0D19317D2629292F28262929CE
:10041000292630484D4020380808080808080808F0
:10042000382F10C8ACBA2F102834FA00007B000017
:1004300008142A142222142A14089500220095AACE
:10044000005500AAAA55AA55AA000000FF001010E6
:1004500010FF00141414FF001010FF00FF1010F024
:1004600010F0141414FC001414F700FF0000FF0037
:10047000FF1414F404FC141417101F10101F101F85
:100480001414141F00101010F0000000001F1010B2
:1004900010101F10101010F010000000FF101010AE
:1004A000101010101010FF10000000FF140000FFCB
:1004B00000FF00001F10170000FC04F414141710B4
:1004C000171414F404F40000FF00F71414141414A7
:1004D0001414F700F7141414171410101F101F141D
:1004E0001414F4141010F010F000001F101F00007E
:1004F000001F14000000FC140000F010F01010FFAA
:1005000010FF141414FF141010101F00000000F04E
:1005100010FFFFFFFFFFF0F0F0F0F0FFFFFF000023
:10052000000000FFFF0F0F0F0F0F38444438447CCA
:100530002A2A3E147E02020606027E027E026355CD
:100540004941633844443C04407E201E2006027E1C
:10055000020299A5E7A5991C2A492A1C4C7201722E
:100560004C304A4D4D303048784830BC625A463D98
:100570003E494949007E0101017E2A2A2A2A2A444D
:10058000445F444440514A444040444A5140000082
:10059000FF0103E080FF000008086B6B083612368D
:1005A0002436060F090F060000181800000010106E
:1005B000003040FF0101001F01011E00191D17122C
:1005C000003C3C3C3C0000000000F0F89C8E87831F
:1005D000878E9CF8F00000FEFF0303030303070E61
:1005E000FCF80000FEFF0303030303070EFCF80002
:1005F00000FFFF00000000000000FFFF0000FEFF02
:100600008383838383C7EE7C380000F8FC0E0703E6
:100610000303070EFCF800003F7FE0C08080C0E0CD
:100620007F3FFFFF01010101010101FFFF0000FF0A
:10063000FF0C0C0C0C1C3E77E3C100007FFFC0C018
:10064000C0C0C0E0703F1F00001F3F70E0C0C0C0CE
:10065000E0703F1F00007FFFC1C1C1C1C1E3773E11
:100660001C00001F3F70E0C0C0C0E0703F1F0000D2
:1006700000000001FFFF01000000D5F08D14A1C8AB
:1006800081CFD9F1AF2000080B000202020100095E
:1006900004000001020200000524001001052401ED
:1006A0000101042402060524060001070581031048
:1006B000004009040100020A000000070502024090
:1006C0000000070583024000000403090412010032
:1006D00002EF020140412336800001010203014183
:1006E000726475696E6F204C4C4300417264756290
:1006F0006F79000000000101010202005111112474
:100700001FBECFEFDAE0DEBFCDBF11E0A0E0B1E069
:10071000E0E0FAE202C005900D92A234B107D9F7E9
:1007200028E0A2E4B1E001C01D92A033B207E1F7D6
:1007300013E0CFE7D3E004C02197FE010E94F31439
:10074000CE37D107C9F70E94B00D0C94FE140C945B
:100750000000CF92DF92EF92FF920F931F93CF93FF
:10076000DF936C017A018B01C0E0D0E0CE15DF058C
:1007700081F0D8016D918D01D601ED91FC91019030
:10078000F081E02DC6010995892B11F02196EECF5D
:100790007E01C701DF91CF911F910F91FF90EF90E4
:1007A000DF90CF9008952D9A08958FB18095807F26
:1007B000669B88601C9B846008952F923F924F92A5
:1007C0005F926F927F928F929F92AF92BF92CF92E1
:1007D000DF92EF92FF920F931F93CF93DF93CDB7EA
:1007E000DEB728970FB6F894DEBF0FBECDBF9D834E
:1007F0008C836A30A1F4DC0155962C915597519663
:100800008D919C915297B8E02B9F800D911D1124E2
:10081000EC81FD81928B818B108A1786C6C06D306A
:1008200009F4C3C0AC81BD811F968D919C915097F6
:1008300080389105BCF0EC81FD812589422F50E084
:1008400087859089F6E02F9F800D911D1124AC8142
:10085000BD8150969C938E931F9756962C91211193
:100860008FC0A3C0EC81FD81E188F288F0E4EF162F
:10087000F1040CF7AC81BD815596BC91BE839C01FF
:10088000E5E0BE9F200D311D1124121613069CF6C3
:10089000CB2ED12C970158E0B59F200D311D11248E
:1008A0001216130644F6AC81BD8154965C905497A1
:1008B00053964C90B5E06B9FF00111249F01265395
:1008C0003F4F38872F83912C30E1732EEF81F885CD
:1008D0008490F5E09F1201C0812C870128E0622EF0
:1008E00080FE02C0542D01C0552D511103C0541477
:1008F00009F433C09C01F52FF170322E622F681B72
:100900004E81641750F5B801A62FA01B5E81A51774
:1009100008F520383105D8F460347105C0F45B0166
:10092000A501E1E041FDE4E040FDEE0F42FDE2956E
:10093000487F749ED0011124A30DBA83A983A75ABE
:10094000BE4FBC90BE2AF11101C0BE26BC926F5FA3
:100950007F4FDACF2F5F3F4FD0CF86946A940C0D34
:100960001D1D6110BDCF93948C0D9D1D2F81388569
:100970002F5F3F4F38872F8336E09312A7CF5BCF8F
:100980006AEF64039001659F300D112420583F4F9A
:100990002817390754F48C819D81DC01ED91FC917D
:1009A0000190F081E02D6AE0099581E090E02896C1
:1009B0000FB6F894DEBF0FBECDBFDF91CF911F9170
:1009C0000F91FF90EF90DF90CF90BF90AF909F90EE
:1009D0008F907F906F905F904F903F902F900895F1
:1009E0000895089580E090E008950C948211BC0170
:1009F00080E090E00C94EF080E94F9141F920F928F
:100A00000FB60F9211242F933F938F939F93AF9321
:100A1000BF938091470190914801A0914901B09105
:100A20004A013091460123E0230F2D3720F401962F
:100A3000A11DB11D05C026E8230F0296A11DB11D01
:100A4000209346018093470190934801A093490168
:100A5000B0934A0180914B0190914C01A0914D01BE
:100A6000B0914E010196A11DB11D80934B01909351
:100A70004C01A0934D01B0934E01BF91AF919F9156
:100A80008F913F912F910F900FBE0F901F9018954F
:100A9000FC018485958597FD0BC09FB7F89482E093
:100AA0008093E9008091F2009FBF90E00196089545
:100AB0009FB7F89482E08093E9008091F2009FBF95
:100AC00090E00895409152015091530120915001BE
:100AD0003091510142175307B4F49091E80095709A
:100AE000E1F39091E80092FD19C08093F1008091AC
:100AF00052019091530101968F739927892B19F414
:100B00008EEF8093E80080915201909153010196FD
:100B1000909353018093520181E0089580E00895FD
:100B2000DF92EF92FF920F931F93CF93DF93D82E14
:100B30008A017B01E40EF51EEB01CE15DF0571F095
:100B4000D7FE03C0FE01849101C088810E94620526
:100B500021968111F2CF8FEF9FEF01C0C801DF9185
:100B6000CF911F910F91FF90EF90DF90089561500A
:100B700030F02091F100FC0120830196F8CF2898F5
:100B800084E68093570108953FB7F89480914B0114
:100B900090914C01A0914D01B0914E0126B5A89BBA
:100BA00005C02F3F19F00196A11DB11D3FBFBA2FFF
:100BB000A92F982F8827820F911DA11DB11DBC015F
:100BC000CD0142E0660F771F881F991F4A95D1F724
:100BD00008950F931F93CF93DF931F92CDB7DEB786
:100BE0008C01FC018485958597FF0EC0CE0101968E
:100BF0000E940B0D019719F4898190E002C08FEFDC
:100C00009FEFF80195878487F801848595850F907B
:100C1000DF91CF911F910F9108950F931F93CF9361
:100C2000DF931F92CDB7DEB782E0898342E450E0C4
:100C300067E876E080E80E9490050E94570DDC018D
:100C400012960D911C9113970115110589F0D80189
:100C5000ED91FC910280F381E02DBE016F5F7F4F2B
:100C6000C801099597FD04C0F80100851185ECCFF6
:100C700089810F90DF91CF911F910F9108951F925D
:100C80000F920FB60F9211248F939F938091E100E2
:100C90009091E100937F9093E10083FF0FC0109249
:100CA000E90091E09093EB001092EC0092E39093B6
:100CB000ED001092580198E09093F00082FF20C060
:100CC00093E09093E9009091F200992319F09AE350
:100CD0009093E80090915501992339F09091550136
:100CE000915090935501992389F19091570199233F
:100CF00039F090915701915090935701992341F108
:100D000084FF10C08091E2008E7E81608093E200BB
:100D10008091E1008F7E8093E100809156018E7E6C
:100D2000806111C080FF16C08091E2008E7E8061DC
:100D30008093E2008091E1008E7E8093E1008091BB
:100D400056018E7E81608093560104C05D9ACDCF9E
:100D5000289AD6CF9F918F910F900FBE0F901F9022
:100D600018951F920F920FB60F921124CF92DF9217
:100D7000EF92FF920F931F932F933F934F935F93A5
:100D80006F937F938F939F93AF93BF93EF93FF9353
:100D9000CF93DF93CDB7DEB76C97DEBFCDBF109298
:100DA000E9008091E80083FFFBC168E0CE01459631
:100DB0000E94B70582EF8093E8008D8987FF05C008
:100DC0009091E80090FFFCCF03C09EEF9093E80065
:100DD000982F907609F0C6C09E894F89588D2F892B
:100DE000F88C91110CC0803829F480914F018093C8
:100DF000F10002C01092F1001092F10045C1913053
:100E000051F4811141C14130510509F03DC180913A
:100E10004F018D7F0BC0933061F4811135C141309A
:100E2000510509F031C180914F01826080934F01DB
:100E30002BC1953049F48091E80080FFFCCF822FD0
:100E400080688093E30020C1963009F05EC00B8D6E
:100E50001C8D22E01092E900109253011092520171
:100E6000F21232C010925101109250010E940D06F0
:100E700099E0BE016F5F7F4FDB01E92F1D92EA957C
:100E8000E9F79983FA8291E09E8390EA98879AEF36
:100E900099872091520130915301275F3F4F3C8346
:100EA0002B838D831092E90010925301109252010E
:100EB000109351010093500149E050E080E00E94FE
:100EC00090050E940D06E0C010935101009350015F
:100ED0000E94570DDC0112960D911C91139701157C
:100EE000110509F4BBC0D801ED91FC910480F58196
:100EF000E02DBE016B5E7F4FC8010995009709F098
:100F0000C7C0F80100851185EACF973009F445C1C3
:100F1000983021F481E08093F100B6C0993009F057
:100F2000B3C0837009F039C1E5E1F1E081E031E05F
:100F300096E32081211109C08EE78093EA00109288
:100F4000EA008F89809358019FC08093E900309315
:100F5000EB0021912093EC009093ED008F5F8730A0
:100F600041F7EACF8B8D9C8D1092E90010925301CE
:100F7000109252019093510180935001898D8111FB
:100F800053C08E899D89913A49F4813209F005C197
:100F900047E050E06CE071E080E0BBC0913209F0C6
:100FA000FCC0833269F48F89988DA0E0B0E0809313
:100FB000080190930901A0930A01B0930B0164C04A
:100FC000803269F48091E80082FFFCCF67E08CE01A
:100FD00091E00E94B7058BEF8093E80055C0823204
:100FE00009F052C08F8980931301EEEFFFE78591DE
:100FF00094918B3F9C4D19F0E0E0F8E002C0EEEFD9
:10100000FAE080910C0190910D01A0910E01B09138
:101010000F01803B9440A105B10509F09EC080916D
:10102000130180FF79C099C00E94570DFC01028115
:1010300013810115110509F4B0C0D801ED91FC919F
:101040000190F081E02DBE016B5E7F4FC8010995D4
:1010500081111AC0F80100851185EBCFF1E0FF1670
:1010600009F44EC0F3E0FF1298C08F89882309F479
:101070004AC0823089F440E867E08BEE96E00E9437
:101080001C11882309F489C08EEF8093E80088C082
:1010900018161906CCF381C0813029F440E86BE0C2
:1010A0008FED96E0ECCF833009F077C00E94570DAA
:1010B000DC011296ED90FC9013978E010F5F1F4F8D
:1010C0006801E114F10479F0D701ED91FC910680FB
:1010D000F781E02DB801C7010995080F111DF7012F
:1010E000E084F184EECFD8011C92F601019000203B
:1010F000E9F73197BF016C197D0940E0C601BFCF08
:101100006DEC76E002C069EC76E0FB01449150E0C2
:1011100080E80E949005B8CFEE3F2AE0F20751F038
:10112000808191818737A7E79A0721F09093FF0A82
:101130008093FE0A87E797E7918380838091600020
:10114000809354019BE088E10FB6F894A8958093B2
:1011500060000FBE9093600097CF808191818737A8
:10116000974709F091CFA89580916000886180939E
:1011700060008091540180936000EE3FBAE0FB076D
:1011800039F08091FE0A9091FF0A918380837CCF91
:101190001092FF0A1092FE0A77CF81E28093EB0053
:1011A0006C960FB6F894DEBF0FBECDBFDF91CF9126
:1011B000FF91EF91BF91AF919F918F917F916F912F
:1011C0005F914F913F912F911F910F91FF90EF9061
:1011D000DF90CF900F900FBE0F901F9018958F92B9
:1011E0009F92AF92BF92CF92DF92EF92FF926B01EC
:1011F0007C010E94C4054B015C01C114D104E104CF
:10120000F104F1F00E94C405DC01CB0188199909B1
:10121000AA09BB09883E9340A105B10570F321E0FE
:10122000C21AD108E108F10888EE880E83E0981E02
:10123000A11CB11CC114D104E104F10419F7DDCFE4
:10124000FF90EF90DF90CF90BF90AF909F908F90E6
:1012500008952FB7F89483E08093E9009091E80017
:10126000892F807295FF04C09091F20080E4891B61
:101270002FBF0895CF93DF931F92CDB7DEB7698359
:10128000DC01ED91FC910280F381E02D41E050E022
:10129000BE016F5F7F4F09950F90DF91CF91089549
:1012A00083E08093E9008091F200882319F08AE3BB
:1012B0008093E80008950E94290990E008958F9294
:1012C0009F92AF92BF92CF92DF92EF92FF920F93D5
:1012D0001F93CF93DF936C017B018A0180911301EF
:1012E000882309F45CC080915801882309F457C011
:1012F0008091560180FF05C08091E000826080935C
:10130000E000E801B12C8AEFA82E93E0892E2AE3B1
:10131000922E209711F4BB20D9F10E942909811146
:101320000AC0AA94AA20D9F161E070E080E090E0C0
:101330000E94EF08EECF282F30E0C217D3070CF43D
:101340008C2F9FB7F8948092E9002091E80025FF48
:101350001DC0282F30E0C21BD30BF701815020F0B5
:1013600041914093F100FACFE20EF31EBB2019F039
:101370009092E8000AC08091E80085FD07C0909235
:10138000E800BB24B394209709F0B12C9FBFC1CFD4
:101390005D9884E6809355011016110644F081E0B3
:1013A00090E0F6019383828380E090E001C0C80161
:1013B000DF91CF911F910F91FF90EF90DF90CF9031
:1013C000BF90AF909F908F9008952F923F924F9231
:1013D0005F926F927F928F929F92AF92BF92CF92C5
:1013E000DF92EF92FF920F931F93CF93DF93CDB7CE
:1013F000DEB7A0970FB6F894DEBF0FBECDBF9A8BB5
:10140000898B4D835E836F8378874801590180E122
:10141000A989BA891D928A95E9F7C901B8010E9484
:1014200021126B017C01C501B4010E94B0144B0173
:101430005C0120E030E040EF51E4C701B6010E94BA
:1014400043142B013C0120E030E0A901C501B401A7
:101450000E9443149B01AC01C301B2010E94981188
:101460002B013C0120E030E040EF51E4C501B40124
:101470000E9443144B015C0120E030E0A901C70148
:10148000B6010E9443149B01AC01C501B4010E9446
:1014900099114B015C01C0906005D0906105E0900E
:1014A0006205F09063059B01AC01C701B6010E9483
:1014B00043149B01AC0160E070E080E092E40E9484
:1014C00098116D877E878F87988BA3019201C70142
:1014D000B6010E9443149B01AC016D817E818F8116
:1014E00098850E9498116D837E838F8398872090C2
:1014F0005F052092DF07A30192015F7729873A8772
:101500004B875C87D501C401BF7789839A83AB83FE
:10151000BC8320E030E040EC5FE360915B057091BC
:101520005C0580915D0590915E050E94431420E06A
:1015300030E040E251E40E942A139B01AC0160E0DC
:1015400070E080E490E40E940B136B017C01298120
:101550003A814B815C8169857A858B859C850E9467
:101560003E14A701960118162CF469857A858B859F
:101570009C8504C069817A818B819C810E9426129E
:101580000E9405120E949F1270E080E090E00E948D
:10159000CE1220E030E044E452E40E942A139B0182
:1015A000AC0160E070E080E490E40E940B130E94C4
:1015B0009F12698770E061507109072E000C880B3B
:1015C000990B0E94D0126B017C019B01AC01C301FD
:1015D000B2010E9426126B8B7C8B8D8B9E8BA70198
:1015E0009601C501B4010E9426126F8B788F898FF6
:1015F0009A8F312C9985931509F4D2C140905B05DF
:1016000050905C0560905D0570905E0520E030E0D4
:1016100040E05FE3C301B2010E9443146B017C010F
:101620009B01AC016D817E818F8198850E9498110C
:101630004B015C01A70196016D857E858F85988998
:101640000E9498116B017C0180915A05882309F44E
:101650003EC020E030E040E852ECC501B4010E94F9
:101660003E1487FD34C020E030E040E453E4C5017F
:10167000B4010E941C1287FF2AC020E030E040E83D
:1016800052ECC701B6010E943E1487FD20C020E045
:1016900030E040E053E4C701B6010E941C1287FF0E
:1016A00016C001C111968C9111974B8D5C8D481B12
:1016B000510987FD5395E981FA81E417F5070CF488
:1016C0001DC13F5F15960313EDCF17FF35C1809104
:1016D000590589838830F0F02B893C894D895E89D2
:1016E0006D817E818F8198850E9499116D837E83A3
:1016F0008F8398872F89388D498D5A8D6D857E858A
:101700008F8598890E9499116D877E878F87988B26
:10171000339470CFC501B4010E9498124B015C0153
:101720008B01C701B6010E9498126B017C017C8F6E
:101730006B8FC301B2010E949812DB0197FE0CC0AF
:101740002227332728193909261737072CF6860E42
:10175000971E00E010E001C04B01EB8DFC8DF7FF00
:101760000DC0222733272C193D092A173B070CF0FF
:10177000B3CFDB01AC0DBD1D1C8E1B8E18141904DC
:101780000CF0AACF003811050CF0A6CF1A161B06D4
:101790000CF0A2CF2B8D3C8D203431050CF09CCF6A
:1017A0009401200F311F213831052CF080E8882E5C
:1017B000912C801A910A2B8D3C8D2A0F3B1F2134CE
:1017C000310534F0A0E4B0E04B8D5C8DA41BB50B6B
:1017D0002B8D3C8D53E0359527955A95E1F736953D
:1017E000322F222737952795020F131F075A1E4FB6
:1017F0005B8D57705B8F252F30E04FEF01C0440F9A
:101800005A95EAF78981E82F880FFF0BED50F94FC1
:10181000E491C9018A0F9B1FA8E0B0E0A81BB90B97
:10182000BA83A983B4017727F0E8EF2EF12CE818EA
:10183000F908883091054CF42FEF30E0098002C0A0
:10184000359527950A94E2F74223382DE13041F48B
:10185000D8013323C1F031502C91242B2D93F9CF93
:10186000E11109C04095D801332369F031502C9122
:1018700024232D93F9CFD801332329F031502C9113
:1018800024272D93F9CF060F171F08970E0D1F1D44
:1018900029813A81285F3F4F3A8329834FEF1816F9
:1018A00019063CF219CF10915905C501B4010E94E7
:1018B000981268A3C701B6010E9498126F8FC301E6
:1018C000B2010E949F12262F00915F05A7E8B5E0A4
:1018D00030E088A1082E000C990B9C8F8B8F822FF3
:1018E00090E0EE27FF27E81BF90BFA83E9834F8D81
:1018F000042E000C550B5E8F4D8FE5CE13968C9108
:10190000139790E0481759070CF0DBCE12968C9194
:1019100012974D8D5E8D481B510987FD5395E41735
:10192000F5070CF0CECE14968C91149790E04817E2
:1019300059070CF0C6CE13C0F7E7F21508F4C7CE6E
:1019400035E0329DF0011124E957FA4F108348A188
:1019500041835F8D5283238324832394B8CE8C915B
:10196000E82FF0E094E0F595E7959A95E1F7EE0F12
:10197000FF1F49895A89E40FF51F8F7041E050E03D
:1019800060E070E004C0440F551F661F771F8A9502
:10199000D2F780819181482B592B5183408391CE7E
:1019A0002092DF0720925F0589899A89A0960FB659
:1019B000F894DEBF0FBECDBFDF91CF911F910F9185
:1019C000FF90EF90DF90CF90BF90AF909F908F905F
:1019D0007F906F905F904F903F902F900895E9E532
:1019E000F1E0A0E0B8E000800EBC8111012C11975D
:1019F000A0FDFDCF0192B9F70DB4089580E0E9E5AF
:101A0000F1E081118FEF0024819381938193819381
:101A10000394D1F7089520915801211103C08FEF4D
:101A20009FEF08955FB7F89422E02093E90020919A
:101A3000F20030E01216130614F421E030E0422FD9
:101A4000FC0184E6415038F028988093570190912A
:101A5000F1009193F7CF2115310521F08091F2002B
:101A6000882319F05FBFC90108958BE68093E800D1
:101A7000F9CFCF93DF931F92CDB7DEB7FC018485FA
:101A8000958597FD05C02FEF3FEF358724870BC065
:101A9000CE0101960E940B0D019719F4898190E007
:101AA00002C08FEF9FEF0F90DF91CF91089580914B
:101AB0007F0581110DC082E080937B0584E08093D7
:101AC0007C0510927E0510927D0581E080937F0554
:101AD0008BE795E008950F931F93CF93DF938C01CD
:101AE00081E090E00E94F50480FF32C08AE090E03F
:101AF0000E94F5049FEF980F9E3F50F522E330E0DF
:101B0000D80150963C932E931F9728E330E05296CD
:101B10003C932E935197CBE0D0E0D801ED91FC910E
:101B20000190F081E02D682FC8010995CE010E9437
:101B3000F5042196C131D10581F780E00E94EF0CB8
:101B400088EE93E0DF91CF911F910F910C94F704F1
:101B5000DF91CF911F910F91089504970C946B0D15
:101B6000CF93DF93CDB7DEB760970FB6F894DEBFA3
:101B70000FBECDBF789484B5826084BD84B581608A
:101B800084BD85B5826085BD85B5816085BD809148
:101B90006E00816080936E001092810080918100C0
:101BA00082608093810080918100816080938100B8
:101BB000809180008160809380008091910082609C
:101BC0008093910080919100816080939100809139
:101BD00090008160809390008091C1008460809328
:101BE000C1008091C10082608093C1008091C100DA
:101BF00081608093C1008091C30081608093C300A5
:101C00008091C00082608093C0008091C20081609A
:101C10008093C20080917A00846080937A008091E2
:101C20007A00826080937A0080917A00816080934C
:101C30007A0080917A00806880937A00109258012F
:101C400010924F01109256018091D70081608093CD
:101C5000D70080EA8093D80089B5806189BD89B5B5
:101C6000826089BD09B400FEFDCF61E070E080E0D4
:101C700090E00E94EF088091D8008F7C8061809373
:101C8000D8008091E000807F8093E0008091E100A7
:101C90008E7E8093E1008DE08093E200559A209A39
:101CA00081EC80937C0085B1806F85B984B1877E9B
:101CB00084B984B1876E84B95E9A5F988AB1806D69
:101CC0008AB9769A6E9881B3806F81BB899880B308
:101CD0008D7080BB80E58CBD81E08DBD85E090E09E
:101CE0000E94F7045F9A85E090E00E94F7045E98F6
:101CF0005C98EAE7F6E087E896E024912EBD0000C4
:101D00000DB407FEFDCF31968E179F07B1F75C9A91
:101D100081E8809364008091650081608093650014
:101D200080E00E94EF0C0E94D50387FF24C05C98DE
:101D300085EA8EBD00000DB407FEFDCF5C9A2E989B
:101D40002F982D988091640080628093640081E0D8
:101D500083BF889513BEFCCF2D980E94D50384784D
:101D6000843871F00E94D5038471843131F188EC9C
:101D700090E00E94F7040E94D50382FDEDCF3AC0A7
:101D80000E94D30388EC90E00E94F7042F9882E031
:101D900090E00E9482118F3F29F06FEF82E090E087
:101DA0000E948A1184EF91E00E94F7042F9A0E940A
:101DB000D50384788438D9F3D5CF0E94D30388EC37
:101DC00090E00E94F7042E9882E090E00E94821139
:101DD000882329F060E082E090E00E948A1184EF7D
:101DE00091E00E94F7042E9A0E94D50384718431F9
:101DF000D9F3BDCF0E94D30382E090E00E94F504A6
:101E0000882319F03E9A3F9A02C03E983F9881E09D
:101E100090E00E94F504482F4470942E81FF85C005
:101E200041112E9800EF1FEFE8E0EE2EF12C0E94FA
:101E3000D50386FF05C02E9A2F9A0E94D30375C042
:101E4000992029F00430110511F42E9A2F9881E081
:101E50000E94EF0C980117FF04C022273327201B94
:101E6000310B27703327C80117FD079673E095954E
:101E700087957A95E1F717FF05C00197D701A21B57
:101E8000B30B9D01AC015695542F442757954795A8
:101E9000475A5E4FA0E0B0E03701621A730A8F3FE5
:101EA000EFEF9E074CF40196A85ABF4F40585F4F82
:101EB000A03BB105A1F71EC06A01F4E9CF0ED11C09
:101EC0005A0160E070E08F3FEFEF9E0709F492C186
:101ED000FB01EA0FFB1FE653FA4FE491F0E02F01FC
:101EE000022E01C0440C0A94EAF7F50184884828C0
:101EF000448A80C180E00E94EF0C8FE090E00E9455
:101F0000F7040F5F1F4F0931110509F090CF992099
:101F100011F02F9A2D9880E991E00E94F7040E9419
:101F2000D30384E695E00E946B0D82E390E00E946B
:101F3000F7040E94D5038111F8CF80E180936F05EB
:101F40000E94FE0C10927605109275051092740591
:101F50001092730510925F0581E080935A0583E02B
:101F60008093590580E090E0A0E8BFE380935B0593
:101F700090935C05A0935D05B0935E0580E090E0D2
:101F8000A0E0BFE38093600590936105A093620594
:101F9000B093630580E00E94EF0C80E0282E80E083
:101FA000382EC12CD12C90E8E92E9FE3F92E2DEC90
:101FB000422E2CEC522E2CE4622E2FE3722E8FB781
:101FC000F894409147015091480160914901709106
:101FD0004A018FBF80917005F42FF81B8F2F9091CD
:101FE0007105992329F0F093720510927105FBC0D9
:101FF00090916F05F91748F48F5F891708F0F3C0C7
:1020000041E043BF889513BEEEC081E08093710527
:102010004093700580916B0590916C0501969093AB
:102020006C0580936B050E94FE0C10927605109251
:102030007505109274051092730510925F0520E0EB
:1020400030E046EC52EC6091040170910501809102
:102050000601909107010E941C12811130C020E0FE
:1020600030E046EC52EC60910001709101018091EA
:102070000201909103010E941C12811120C080E096
:1020800090E0A0E8B2E48093040190930501A0934E
:102090000601B093070180E090E0A0E0B2E48093F5
:1020A000000190930101A0930201B09303011092EB
:1020B000420110924301109244011092450125E320
:1020C0003AEF4EE85CE360914201709143018091E8
:1020D0004401909145010E9499114B015C012BED47
:1020E0003FE049EC50E40E943E1487FF09C0809213
:1020F000420190924301A0924401B092450108C070
:102100001092420110924301109244011092450135
:1021100080E090E0A0E0BFE38093600590936105CC
:10212000A0936205B093630580E090E0A0E0B0E486
:1021300080935B0590935C05A0935D05B0935E056D
:102140008090420190904301A0904401B0904501DD
:102150009501840140E050E060E872E4CE01019610
:102160000E94E509109260051092610510926205C7
:1021700010926305C0925B05D0925C05E0925D050C
:10218000F0925E052BED3FE049EC5FE3C501B40141
:102190000E9499114B015C018B019C0140E050E0D1
:1021A00060E072E4CE0101960E94E509409260056C
:1021B000509261056092620570926305C0925B0562
:1021C000D0925C05E0925D05F0925E059501840178
:1021D00040E050E060EC72E4CE0101960E94E50917
:1021E00080E00E94EF0C2114310409F4E8CE0E9433
:1021F0000000E5CE2115310591F0FB01EA0FFB1F30
:10220000E653FA4FE491F0E02F01062C02C05594FA
:1022100047940A94E2F7F6018080482840826F5F75
:102220007F4FFFEFCF1ADF0AEFEFAE1ABE0A683515
:10223000710509F048CE37CEDF92EF92FF920F93EF
:102240001F93CF93DF93D82EF92EE42E062F10E0A4
:10225000C8010196880F0E94620583E00E94620512
:10226000CD2DDF2D0C0F1D1FC017D10789F0E7FE04
:1022700003C0FE01849101C088810E946205F82E8E
:1022800080E00E9462058F2121968111EDCF01C06F
:1022900081E0DF91CF911F910F91FF90EF90DF9040
:1022A0000895E0EEF7E01382128288EE93E0A0E05A
:1022B000B0E084839583A683B7838FE191E0918317
:1022C00080838FEF9FEF95878487E4E6F5E01382A4
:1022D00012821186128680E1838710861782158606
:1022E00081E391E0918380838FE391E09583848300
:1022F000108A1786128A118A81E0838B148A858B53
:10230000168A0895F999FECF92BD81BDF89A992752
:1023100080B50895262FF999FECF1FBA92BD81BDD1
:1023200020BD0FB6F894FA9AF99A0FBE0196089557
:102330005058BB27AA270E94B0110C94D8130E94B2
:102340009F1338F00E94A61320F039F49F3F19F430
:1023500026F40C949C130EF4E095E7FB0C946D139B
:10236000E92F0E94FD1358F3BA1762077307840719
:10237000950720F079F4A6F50C9437140EF4E09547
:102380000B2EBA2FA02D0B01B90190010C01CA012F
:10239000A0011124FF27591B99F0593F50F4503EDA
:1023A00068F11A16F040A22F232F342F4427585FCC
:1023B000F3CF469537952795A795F0405395C9F7E4
:1023C0007EF41F16BA0B620B730B840BBAF091509C
:1023D000A1F0FF0FBB1F661F771F881FC2F70EC03B
:1023E000BA0F621F731F841F48F48795779567950E
:1023F000B795F7959E3F08F0B0CF9395880F08F0FA
:102400009927EE0F9795879508950E941F1490F0D5
:102410009F3748F4911116F40C94381460E070E082
:1024200080E89FE3089526F01B16611D711D811D34
:102430000C9473130C948E130E94491308F481E0DA
:1024400008950E94AF13E3950C94E9130E943A1289
:102450000C94D8130E94A61358F00E949F1340F0CA
:1024600029F45F3F29F00C946D1351110C9438142A
:102470000C949C130E94FD1368F39923B1F3552328
:1024800091F3951B550BBB27AA2762177307840787
:1024900038F09F5F5F4F220F331F441FAA1FA9F31D
:1024A00035D00E2E3AF0E0E832D091505040E6950B
:1024B000001CCAF72BD0FE2F29D0660F771F881F6C
:1024C000BB1F261737074807AB07B0E809F0BB0B5F
:1024D000802DBF01FF2793585F4F3AF09E3F510573
:1024E00078F00C946D130C9438145F3FE4F3983E2D
:1024F000D4F3869577956795B795F7959F5FC9F75C
:10250000880F911D9695879597F90895E1E0660FDC
:10251000771F881FBB1F621773078407BA0720F055
:10252000621B730B840BBA0BEE1F88F7E0950895BE
:102530000E949F126894B1110C94381408950E945F
:10254000051488F09F5798F0B92F9927B751B0F02C
:10255000E1F0660F771F881F991F1AF0BA95C9F727
:1025600014C0B13091F00E943714B1E008950C947A
:102570003714672F782F8827B85F39F0B93FCCF32D
:10258000869577956795B395D9F73EF490958095A4
:10259000709561957F4F8F4F9F4F0895E89409C0C4
:1025A00097FB3EF490958095709561957F4F8F4F86
:1025B0009F4F9923A9F0F92F96E9BB279395F6959C
:1025C000879577956795B795F111F8CFFAF4BB0F1A
:1025D00011F460FF1BC06F5F7F4F8F4F9F4F16C07E
:1025E000882311F096E911C0772321F09EE8872F08
:1025F000762F05C0662371F096E8862F70E060E0C4
:102600002AF09A95660F771F881FDAF7880F96953C
:10261000879597F90895990FBB0B550FAA0BE0E822
:10262000FEEF16161706E807F90770F012161306E4
:10263000E407F50760F0BA173CF049F46217730736
:1026400084079507A7951BF4B901CA01BA2FB6955F
:1026500097950895990FBB0B550FAA0BE0E8FEEF75
:1026600016161706E807F90770F012161306E407A6
:10267000F50760F0BA1754F031F42617370748070A
:102680005907A7951BF4B901CA01BA2FB6959795BA
:102690000895990F0008550FAA0BE0E8FEEF1616F3
:1026A0001706E807F907C0F012161306E407F50746
:1026B00098F0621B730B840B950B39F40A2661F0BA
:1026C000232B242B252B21F408950A2609F4A1405D
:1026D000A6958FEF811D811D089597F99F6780E86A
:1026E00070E060E00895882371F4772321F098501A
:1026F000872B762F07C0662311F499270DC09051C0
:10270000862B70E060E02AF09A95660F771F881F8D
:10271000DAF7880F9695879597F908959F3F31F0DE
:10272000915020F4879577956795B795880F911DFF
:102730009695879597F908959FEF80EC089500246A
:102740000A941616170618060906089500240A9416
:10275000121613061406050608950C949C130E9485
:102760000514D8F3E894E0E0BB279F57F0F02AED7A
:102770003FE049EC06C0EE0FBB0F661F771F881FB6
:1027800028F0B23A62077307840728F0B25A620B46
:10279000730B840BE3959A9572F7803830F49A9511
:1027A000BB0F661F771F881FD2F790480C949013B9
:1027B000092E0394000C11F4882352F0BB0F40F44F
:1027C000BF2B11F460FF04C06F5F7F4F8F4F9F4F8F
:1027D0000895EF93E0FF07C0A2EA2AED3FE049EC3D
:1027E0005FEB0E94B0110E94D8130F90039401FC7C
:1027F0009058ECEAF0E00C94B81457FD9058440F50
:10280000551F59F05F3F71F04795880F97FB991F4F
:1028100061F09F3F79F0879508951216130614060C
:10282000551FF2CF4695F1DF08C016161706180699
:10283000991FF1CF869571056105089408950E944E
:102840000514A0F0BEE7B91788F4BB279F3860F4E1
:102850001616B11D672F782F8827985FF7CF8695BA
:1028600077956795B11D93959639C8F30895E894C7
:10287000BB2766277727CB0197F908950E94491354
:1028800008F48FEF08950E9456140C94D8130E94F8
:102890009F1338F00E94A61320F0952311F00C949A
:1028A0006D130C949C1311240C9438140E94FD1386
:1028B00070F3959FC1F3950F50E0551F629FF00193
:1028C000729FBB27F00DB11D639FAA27F00DB11DAC
:1028D000AA1F649F6627B00DA11D661F829F222735
:1028E000B00DA11D621F739FB00DA11D621F839FBC
:1028F000A00D611D221F749F3327A00D611D231F92
:10290000849F600D211D822F762F6A2F11249F57DF
:1029100050409AF0F1F088234AF0EE0FFF1FBB1FE2
:10292000661F771F881F91505040A9F79E3F5105A1
:1029300080F00C946D130C9438145F3FE4F3983ED0
:10294000D4F3869577956795B795F795E7959F5F4B
:10295000C1F7FE2B880F911D9695879597F90895DD
:102960009F930E94AF130F9007FCEE5F0C94E91346
:102970009F938F937F936F93FF93EF939B01AC0192
:102980000E944314EF91FF910E94CC142F913F912C
:102990004F915F910C944314DF93CF931F930F9348
:1029A000FF92EF92DF927B018C01689406C0DA2ED1
:1029B000EF010E945614FE01E894A59125913591EE
:1029C00045915591A6F3EF010E94B011FE019701C8
:1029D000A801DA9469F7DF90EF90FF900F911F91B3
:1029E000CF91DF910895EE0FFF1F0590F491E02D38
:1029F000099481E090E0F8940C94FE14F894FFCFD1
:102A00000000C6C20000C6C2FFFFFFFF00E10000D9
:102A10000000000000C18081000000000000003ABA
:102A2000095F095B0950094805390DE905000000F7
:102A300000DD03A903F204F1046B0DFCFF0000ADFF
:022A40000D0087
:00000001FF
